:060000000A128A11122809
:10000800FE00030EF4000408F5000A08F600831247
:1000180003137F08F7000A128A11E22A0A128A11CA
:10002800152883120313C401C50183179030840077
:10003800F0300A128A11FB2283010A128A11EE2972
:10004800831203132F08B3003008B4003108B50039
:100058003208B60006300310B30DB40DB50DB60D59
:10006800FF3E031D2F283608A3003508A2003408D8
:10007800A1003308A0000030B7002D30B80031309F
:10008800B9000130BA002F08BB003008BC003108A5
:10009800BD003208BE0006300310BB0DBC0DBD0DFF
:1000A800BE0DFF3E031D5028BB09BC09BD09BE0992
:1000B800BB0A0319BC0A0319BD0A0319BE0A3B0887
:1000C800B7073C0803183C0F6A286B28B8073D0897
:1000D80003183D0F70287128B9073E0803183E0A17
:1000E800BA073A08A7003908A6003808A500370853
:1000F800A4000A128A1114210A128A118312031306
:100108002108C0002008BF00013040020030031958
:100118003F02031CF5282F08B3003008B40031084B
:10012800B5003208B60004300310B30DB40DB50D98
:10013800B60DFF3E031D98283608A3003508A20017
:100148003408A1003308A0000030B7002D30B800F3
:100158003130B9000130BA002F08BB003008BC00AC
:100168003108BD003208BE0004300310BB0DBC0DC1
:10017800BD0DBE0DFF3E031DB928BB09BC09BD0955
:10018800BE09BB0A0319BC0A0319BD0A0319BE0A32
:100198003B08B7073C0803183C0FD328D428B807F6
:1001A8003D0803183D0FD928DA28B9073E08031877
:1001B8003E0ABA073A08A7003908A6003808A50079
:1001C8003708A4000A128A1114210A128A1183120C
:1001D80003132108C0002008BF0083160313181555
:1001E800F828831603131811831203133F08831684
:1001F8000313990018128312031398178316031315
:1002080098168312031318168316031318138312F0
:1002180003131813831603138C160B178B17080078
:1002280083120313AA01A31F2629A009A109A20961
:10023800A309A00A0319A10A0319A20A0319A30A08
:10024800AA01AA0AA71F3729A409A509A609A70967
:10025800A40A0319A50A0319A60A0319A70A013053
:10026800A8002808AA060030AE000030AD00003013
:10027800AC000030AB002308220421042004031939
:100288008C29A901A90AA31B57290130A80003102A
:10029800A00DA10DA20DA30DA80B4B290130A8009C
:1002A8002808A90747290130A8000310AB0DAC0D99
:1002B800AD0DAE0DA80B592923082702031D6E2981
:1002C80022082602031D6E2921082502031D6E2916
:1002D80020082402031C7F292008A4022108031CEB
:1002E800210FA5022208031C220FA6022308031CC3
:1002F800230FA7022B1401300310A30CA20CA10C8E
:10030800A00CFF3E031D80290130A902031D5729B7
:100318002A0803199A29AB09AC09AD09AE09AB0A39
:100328000319AC0A0319AD0A0319AE0A2E08A30073
:100338002D08A2002C08A1002B08A0000800831299
:100348000313A2010518A629CF3083120313A000B6
:10035800AD29A00BAC29B02983120313A3010830DF
:1003680023020318D829051CC6290130A000230A36
:10037800BF290310A00DFF3E031DBD292008A100C1
:100388002108A207CF3083120313A000CB29A00BAA
:10039800CA29CE29013083120313A0002008A3071D
:1003A80008302302031CB729051CE529AC30831249
:1003B8000313A000A00BDE290000831203132208F8
:1003C8000800AC3083120313A000A00BE929000039
:1003D8000030080083120313C301C2010030B200C9
:1003E8000030B1001230B000C030AF000A128A11DC
:1003F80024200A128A110A128A110B230A128A115E
:1004080083160317890188010A128A11A3210A1287
:100418008A1183120313C1004108C300430803195A
:10042800082A43080A128A1103230A128A1183121E
:1004380003134308C1004408903E84004108831711
:1004480080000130C1004108C4070A128A11A8229D
:100458000A128A11082A83120313A1000511CF304A
:1004680083120313A000382AA00B372A3B2A8312D1
:100478000313A201083022020318622A2108A000EF
:10048800220A482A0310A00CFF3E031D462A201CFE
:100498004F2A0515502A0511CF3083120313A000E7
:1004A800552AA00B542A582A013083120313A0009E
:1004B8002008A20708302202031C422A0515CF3063
:1004C80083120313A000682AA00B672A6B2A08006E
:1004D800F100831203130511CF30F000732AF00BDB
:1004E800722A762A772AF2010830720203189D2AA6
:1004F8007108F000720A822A0310F00CFF3E031DF7
:10050800802A701C8B2A8312031305158E2A8312E6
:1005180003130511CF30F000912AF00B902A942A8A
:10052800952A0130F0007008F20708307202031CA7
:100538007C2A831203130515CF30F000A32AF00B91
:10054800A22AA62AA72A08006030831203134406A9
:10055800031D0800C501603045020318C52A450877
:10056800903E84002630831700060319BD2AC40173
:1005780008000130A4002408C50760304502031CA8
:10058800B32A0A128A11C922080083120313C5016B
:10059800603045020318E02A26300A128A112F22F9
:1005A8000A128A11013083120313A3002308C50716
:1005B80060304502031CD02AC40108008C1EEE2AB4
:1005C8001A08F3007308F80078080A128A116C22D6
:1005D8000A128A11770883120313FF0076088A002B
:1005E80075088400740E8300FE0E7E0E09006400F8
:1005F8008001840A0406031900340406FC2A8312C5
:100608000313A0000C1E062B200899000800831273
:0E0618000313051583160313051405110800BE
:04400E00D2E0FFFFFE
:00000001FF
